:020000040800F2
:10000000304400206F640008096400080B64000895
:100010000D6400080F64000811640008000000006F
:100020000000000000000000000000001364000851
:100030001564000800000000176400081964000837
:10004000A9640008AD640008B1640008B564000844
:10005000B9640008BD640008C1640008C5640008F4
:10006000C9640008CD640008D1640008D5640008A4
:10007000D9640008DD640008E1640008E564000854
:10008000E9640008ED640008F1640008F564000804
:10009000F9640008FD6400080165000805650008B2
:1000A000096500080D650008116500081565000860
:1000B0001B6400081D65000821650008256500080F
:1000C000296500082D6500083165000835650008C0
:1000D000396500083D650008416500084565000870
:1000E000496500084D6500085165000800000000E2
:1000F0000000000000000000000000000000000000
:100100000000000000000000556500085965000867
:100110005D6500086165000865650008696500089F
:100120006D6500087165000875650008796500084F
:100130007D650008816500088565000889650008FF
:100140008D65000891650008956500081F6400082A
:100150002F70726F6365737365732E7368746D6C43
:100160000025213A202F6865616465722E68746DE0
:100170006C0A3C68313E53797374656D2070726F00
:100180006365737365733C2F68313E3C62723E3C1D
:100190007461626C652077696474683D2231303027
:1001A00025223E0A3C74723E3C74683E49443C2F12
:1001B00074683E3C74683E4E616D653C2F74683EC9
:1001C0003C74683E5072696F726974793C2F746830
:1001D0003E3C74683E506F6C6C2068616E646C6568
:1001E000723C2F74683E3C74683E4576656E7420A0
:1001F00068616E646C65723C2F74683E3C74683E46
:1002000050726F6373746174653C2F74683E3C2F49
:1002100074723E0A25212070726F63657373657373
:100220000A25213A202F666F6F7465722E68746DEF
:100230006C0000002F3430342E68746D6C003C6804
:10024000746D6C3E0A20203C626F647920626763A3
:100250006F6C6F723D227768697465223E0A2020B8
:1002600020203C63656E7465723E0A2020202020A9
:10027000203C68313E343034202D2066696C652086
:100280006E6F7420666F756E643C2F68313E0A2075
:1002900020202020203C68333E476F203C612068AE
:1002A0007265663D222F223E686572653C2F613E75
:1002B00020696E73746561642E3C2F68333E0A209A
:1002C0002020203C2F63656E7465723E0A20203C1E
:1002D0002F626F64793E0A3C2F68746D6C3E00009B
:1002E0002F66696C65732E7368746D6C0025213AF6
:1002F000202F6865616465722E68746D6C0A3C68B5
:10030000313E46696C652073746174697374696306
:10031000733C2F68313E0A3C63656E7465723E0A19
:100320003C7461626C652077696474683D22333087
:1003300030223E0A3C74723E3C74643E3C6120684C
:100340007265663D222F696E6465782E68746D6CE7
:10035000223E2F696E6465782E68746D6C3C2F6147
:100360003E3C2F74643E0A3C74643E25212066693D
:100370006C652D7374617473202F696E6465782EBB
:1003800068746D6C0A3C2F74643E3C74643E3C6936
:100390006D67207372633D222F666164652E706EF7
:1003A0006722206865696768743D31302077696429
:1003B00074683D25212066696C652D7374617473C2
:1003C000202F696E6465782E68746D6C0A3E203C3F
:1003D0002F74643E3C2F74723E0A3C74723E3C742F
:1003E000643E3C6120687265663D222F66696C65DB
:1003F000732E7368746D6C223E2F66696C65732E64
:100400007368746D6C3C2F613E3C2F74643E0A3CF3
:1004100074643E25212066696C652D737461747364
:10042000202F66696C65732E7368746D6C0A3C2F9F
:1004300074643E3C74643E3C696D67207372633D36
:10044000222F666164652E706E6722206865696779
:1004500068743D31302077696474683D25212066D9
:10046000696C652D7374617473202F66696C657394
:100470002E7368746D6C0A3E203C2F74643E3C2FD2
:1004800074723E0A3C74723E3C74643E3C61206867
:100490007265663D222F7463702E7368746D6C22D2
:1004A0003E2F7463702E7368746D6C3C2F613E3CFC
:1004B0002F74643E0A3C74643E25212066696C6595
:1004C0002D7374617473202F7463702E7368746D50
:1004D0006C0A3C2F74643E3C74643E3C696D67203A
:1004E0007372633D222F666164652E706E672220F1
:1004F0006865696768743D31302077696474683D68
:1005000025212066696C652D7374617473202F74C6
:1005100063702E7368746D6C0A3E203C2F74643EC9
:100520003C2F74723E0A3C74723E3C74643E3C61E3
:1005300020687265663D222F73746174732E736830
:10054000746D6C223E2F73746174732E7368746DB6
:100550006C3C2F613E3C2F74643E0A3C74643E2523
:10056000212066696C652D7374617473202F737418
:100570006174732E7368746D6C0A3C2F74643E3C16
:1005800074643E3C696D67207372633D222F66611F
:1005900064652E706E6722206865696768743D31F6
:1005A000302077696474683D25212066696C652D6B
:1005B0007374617473202F73746174732E73687411
:1005C0006D6C0A3E203C2F74643E3C2F74723E0AD0
:1005D0003C74723E3C74643E3C6120687265663DCA
:1005E000222F7374796C652E637373223E2F73749C
:1005F000796C652E6373733C2F613E3C2F74643EAF
:100600000A3C74643E25212066696C652D73746113
:100610007473202F7374796C652E6373730A3C2F87
:1006200074643E3C74643E3C696D67207372633D44
:10063000222F666164652E706E6722206865696787
:1006400068743D31302077696474683D25212066E7
:10065000696C652D7374617473202F7374796C6584
:100660002E6373730A3E203C2F74643E3C2F7472D9
:100670003E0A3C74723E3C74643E3C612068726584
:10068000663D222F3430342E68746D6C223E2F3438
:1006900030342E68746D6C3C2F613E3C2F74643E88
:1006A0000A3C74643E25212066696C652D73746173
:1006B0007473202F3430342E68746D6C0A3C2F74A0
:1006C000643E3C74643E3C696D67207372633D22F6
:1006D0002F666164652E706E6722206865696768A1
:1006E000743D31302077696474683D252120666946
:1006F0006C652D7374617473202F3430342E6874DC
:100700006D6C0A3E203C2F74643E3C2F74723E0A8E
:100710003C74723E3C74643E3C6120687265663D88
:10072000222F666164652E706E67223E2F666164BB
:10073000652E706E673C2F613E3C2F74643E0A3C10
:1007400074643E25212066696C652D737461747331
:10075000202F666164652E706E670A3C2F74643EBC
:100760003C74643E3C696D67207372633D222F6662
:100770006164652E706E6722206865696768743DE4
:1007800031302077696474683D25212066696C6585
:100790002D7374617473202F666164652E706E67AB
:1007A0000A3E203C2F74643E3C2F74723E0A3C2F5C
:1007B0007461626C653E0A3C2F63656E7465723EBF
:1007C0000A25213A202F666F6F7465722E68746D4A
:1007D0006C0A00002F666F6F7465722E68746D6C02
:1007E0000020203C2F626F64793E0A3C2F68746DB4
:1007F0006C3E00002F6865616465722E68746D6CD4
:10080000003C21444F43545950452048544D4C20FE
:100810005055424C494320222D2F2F5733432F2F21
:100820004454442048544D4C20342E3031205472CE
:10083000616E736974696F6E616C2F2F454E222053
:1008400022687474703A2F2F7777772E77332E6F54
:1008500072672F54522F68746D6C342F6C6F6F73E6
:10086000652E647464223E0A3C68746D6C3E0A20F6
:10087000203C686561643E0A202020203C74697435
:100880006C653E57656C636F6D6520746F2074688E
:1008900065207549502077656220736572766572B0
:1008A000213C2F7469746C653E0A202020203C6C2A
:1008B000696E6B2072656C3D227374796C65736828
:1008C0006565742220747970653D22746578742F93
:1008D0006373732220687265663D227374796C6558
:1008E0002E637373223E20200A20203C2F6865610E
:1008F000643E0A20203C626F6479206267636F6CFB
:100900006F723D2223666666656563222074657892
:10091000743D22626C61636B223E0A0A20203C64B3
:10092000697620636C6173733D226D656E75223E3E
:100930000A20203C64697620636C6173733D226DEC
:10094000656E75626F78223E3C6120687265663D17
:10095000222F223E46726F6E7420706167653C2FB5
:10096000613E3C2F6469763E0A20203C6469762013
:10097000636C6173733D226D656E75626F78223EA4
:100980003C6120687265663D2266696C65732E73F2
:1009900068746D6C223E46696C652073746174697D
:1009A00073746963733C2F613E3C2F6469763E0A21
:1009B00020203C64697620636C6173733D226D6511
:1009C0006E75626F78223E3C6120687265663D22DA
:1009D00073746174732E7368746D6C223E4E65740B
:1009E000776F726B20737461746973746963733C9D
:1009F0002F613E3C2F6469763E0A20203C64697674
:100A000020636C6173733D226D656E75626F782231
:100A10003E3C6120687265663D227463702E736887
:100A2000746D6C223E4E6574776F726B0A20206382
:100A30006F6E6E656374696F6E733C2F613E3C2F01
:100A40006469763E0A20203C62723E0A20203C2FD8
:100A50006469763E0A20200A20203C64697620637F
:100A60006C6173733D22636F6E74656E74626C6F3C
:100A7000636B223E0A0000002F696E6465782E6861
:100A8000746D6C003C21444F4354595045204854E8
:100A90004D4C205055424C494320222D2F2F573387
:100AA000432F2F4454442048544D4C20342E303191
:100AB000205472616E736974696F6E616C2F2F457B
:100AC0004E222022687474703A2F2F7777772E7712
:100AD000332E6F72672F54522F68746D6C342F6CE5
:100AE0006F6F73652E647464223E0A3C68746D6C8B
:100AF0003E0A20203C686561643E0A202020203C9C
:100B00007469746C653E57656C636F6D6520746FB6
:100B1000207468652075495020776562207365727E
:100B2000766572213C2F7469746C653E0A20202022
:100B3000203C6C696E6B2072656C3D227374796C1D
:100B40006573686565742220747970653D227465EB
:100B500078742F6373732220687265663D22737404
:100B6000796C652E637373223E20200A20203C2F6F
:100B7000686561643E0A20203C626F647920626788
:100B8000636F6C6F723D2223666666656563222023
:100B9000746578743D22626C61636B223E0A0A20A0
:100BA000203C64697620636C6173733D226D656ED1
:100BB00075223E0A20203C64697620636C61737361
:100BC0003D226D656E75626F78223E3C61206872D1
:100BD00065663D222F223E46726F6E7420706167FB
:100BE000653C2F613E3C2F6469763E0A20203C64C0
:100BF000697620636C6173733D226D656E75626FFB
:100C000078223E3C6120687265663D2266696C65AB
:100C1000732E7368746D6C223E46696C6520737424
:100C200061746973746963733C2F613E3C2F64691E
:100C3000763E0A20203C64697620636C6173733DC4
:100C4000226D656E75626F78223E3C612068726528
:100C5000663D2273746174732E7368746D6C223EEA
:100C60004E6574776F726B20737461746973746905
:100C700063733C2F613E3C2F6469763E0A20203C22
:100C800064697620636C6173733D226D656E756275
:100C90006F78223E3C6120687265663D2274637005
:100CA0002E7368746D6C223E4E6574776F726B0A9A
:100CB0002020636F6E6E656374696F6E733C2F6185
:100CC0003E3C2F6469763E0A20203C62723E0A2038
:100CD000203C2F6469763E0A0A20203C6469762015
:100CE000636C6173733D22636F6E74656E74626CC6
:100CF0006F636B223E0A20203C703E0A202054681D
:100D00006573652077656220706167657320617225
:100D10006520736572766564206279206120736D49
:100D2000616C6C20776562207365727665722072E3
:100D3000756E6E696E67206F6E20746F70206F66BF
:100D40000A2020746865203C6120687265663D2237
:100D5000687474703A2F2F7777772E736963732EC8
:100D600073652F7E6164616D2F7569702F223E75EA
:100D7000495020656D626564646564205443502F5A
:100D800049500A2020737461636B3C2F613E2E0A28
:100D900020203C2F703E0A20203C703E0A20204339
:100DA0006C69636B206F6E20746865206C696E6B74
:100DB000732061626F766520666F722077656220AE
:100DC0007365727665722073746174697374696394
:100DD000732E0A20203C2F703E0A0A20203C2F62EE
:100DE0006F64793E0A3C2F68746D6C3E0A00000007
:100DF0002F7374796C652E637373006831200A7BDE
:100E00000A2020746578742D616C69676E3A2063DE
:100E1000656E7465723B0A2020666F6E742D73696F
:100E20007A653A313470743B0A2020666F6E742DF7
:100E300066616D696C793A617269616C2C68656C88
:100E40007665746963613B0A2020666F6E742D7746
:100E500065696768743A626F6C643B0A2020706150
:100E60006464696E673A313070783B200A7D0A0A03
:100E7000626F64790A7B0A0A20206261636B677281
:100E80006F756E642D636F6C6F723A2023666666B1
:100E90006565633B0A2020636F6C6F723A626C6118
:100EA000636B3B0A0A2020666F6E742D73697A6546
:100EB0003A3870743B0A2020666F6E742D66616D3F
:100EC000696C793A617269616C2C68656C766574DD
:100ED0006963613B0A7D0A0A2E6D656E750A7B0A9D
:100EE00020206D617267696E3A203470783B0A2069
:100EF0002077696474683A3630253B0A0A202070EE
:100F0000616464696E673A3270783B0A090A20208E
:100F1000626F726465723A20736F6C69642031701D
:100F2000783B0A20206261636B67726F756E642D77
:100F3000636F6C6F723A20236666666364323B0AA5
:100F40002020746578742D616C69676E3A6C6566F3
:100F5000743B0A20200A2020666F6E742D73697A14
:100F6000653A3970743B0A2020666F6E742D666195
:100F70006D696C793A617269616C2C68656C766533
:100F8000746963613B20200A7D0A0A6469762E6DCC
:100F9000656E75626F780A7B0A20207769647468D1
:100FA0003A203235253B0A2020626F726465723A1E
:100FB00020303B0A2020666C6F61743A206C6566B5
:100FC000743B0A746578742D616C69676E3A2063AE
:100FD000656E7465723B0A7D0A0A2E636F6E7465D6
:100FE0006E74626C6F636B0A7B20200A20206D6137
:100FF0007267696E3A203470783B0A202077696402
:1010000074683A3630253B0A0A20207061646469AE
:101010006E673A3270783B0A0A2020626F7264650C
:10102000723A2031707820646F747465643B0A20D2
:10103000206261636B67726F756E642D636F6C6F96
:10104000723A2077686974653B0A0A2020666F6EE1
:10105000742D73697A653A3870743B0A2020666F84
:101060006E742D66616D696C793A617269616C2C80
:1010700068656C7665746963613B20200A0A7D0AA5
:101080000A702E696E74726F0A7B0A20206D61727D
:1010900067696E2D6C6566743A323070783B0A2051
:1010A000206D617267696E2D72696768743A3230BB
:1010B00070783B0A0A2020666F6E742D73697A651A
:1010C0003A313070743B0A2F2A2020666F6E742DDF
:1010D0007765696768743A626F6C643B202A2F0AEF
:1010E0002020666F6E742D66616D696C793A61724D
:1010F00069616C2C68656C7665746963613B20205E
:101100000A7D0A0A702E636C696E6B0A7B0A2020C6
:10111000666F6E742D73697A653A313270743B0A6A
:101120002020666F6E742D66616D696C793A636F0D
:1011300075726965722C6D6F6E6F73706163653B5C
:1011400020200A2020746578742D616C69676E3ADE
:1011500063656E7465723B0A7D0A0A702E636C6962
:101160006E6B390A7B0A2020666F6E742D73697A64
:10117000653A3970743B0A2020666F6E742D666183
:101180006D696C793A636F75726965722C6D6F6EFB
:101190006F73706163653B20200A2020746578744A
:1011A0002D616C69676E3A63656E7465723B0A7D8A
:1011B0000A0A0A700A7B0A202070616464696E67FB
:1011C0002D6C6566743A313070783B0A7D0A0A707E
:1011D0002E72696768740A7B0A2020746578742D02
:1011E000616C69676E3A72696768743B200A7D0AB0
:1011F0000A0000002F7463702E7368746D6C0025F4
:10120000213A202F6865616465722E68746D6C0ADE
:101210003C68313E43757272656E7420636F6E6E0A
:10122000656374696F6E733C2F68313E3C62723E39
:101230003C7461626C652077696474683D2231306A
:101240003025223E0A3C74723E3C74683E4C6F630B
:10125000616C3C2F74683E3C74683E52656D6F74DF
:10126000653C2F74683E3C74683E53746174653C01
:101270002F74683E3C74683E52657472616E736D83
:10128000697373696F6E733C2F74683E3C74683E7B
:1012900054696D65723C2F74683E3C74683E466CC0
:1012A0006167733C2F74683E3C2F74723E0A25219F
:1012B000207463702D636F6E6E656374696F6E73F7
:1012C0000A25213A202F666F6F7465722E68746D3F
:1012D0006C0000002F666164652E706E6700895097
:1012E0004E470D0A1A0A0000000D494844520000FA
:1012F00000040000000A08020000001C9968590060
:101300000000097048597300000B1300000B130113
:10131000009A9C180000000774494D4507D606083E
:10132000141B39AF5BC0E30000001D7445587443C3
:101330006F6D6D656E7400437265617465642077CE
:10134000697468205468652047494D50EF64256EE4
:101350000000003A4944415408D7758C31120010FE
:1013600010C42E379E4065FDFF83F40A1C8D549BEC
:10137000C9CC9A3D9073716791D47436A95501F820
:101380002958C8BF48C481740BA30F7CDB04E84014
:1013900005DFA1F3FC730000000049454E44AE4256
:1013A000608200002F73746174732E7368746D6CA7
:1013B0000025213A202F6865616465722E68746D7E
:1013C0006C0A3C68313E4E6574776F726B207374A3
:1013D00061746973746963733C2F68313E0A3C63BE
:1013E000656E7465723E0A3C7461626C6520776953
:1013F0006474683D223330302220626F72646572FB
:101400003D2230223E0A3C74723E3C74643E3C7085
:1014100072653E0A495020202020202020202020D4
:10142000205061636B6574732072656365697665CE
:10143000640A20202020202020202020202020504E
:1014400061636B6574732073656E740A09202020D4
:1014500020205061636B6574732064726F707065D7
:10146000640A4950206572726F72732020202049EF
:10147000502076657273696F6E2F6865616465725E
:10148000206C656E6774680A2020202020202020B0
:1014900020202020204950206C656E6774682C2025
:1014A0006869676820627974650A202020202020FE
:1014B000202020202020204950206C656E67746811
:1014C0002C206C6F7720627974650A202020202000
:1014D0002020202020202020495020667261676D46
:1014E000656E74730A2020202020202020202020D8
:1014F000202048656164657220636865636B73755D
:101500006D0A20202020202020202020202020576D
:10151000726F6E672070726F746F636F6C0A4943ED
:101520004D500920202020205061636B657473208A
:1015300072656365697665640A202020202020207A
:101540002020202020205061636B65747320736518
:101550006E740A20202020202020202020202020FF
:101560005061636B6574732064726F707065640A98
:10157000202020202020202020202020205479708E
:1015800065206572726F72730A54435020202020C8
:101590002020202020205061636B657473207265C9
:1015A0006365697665640A202020202020202020A1
:1015B000202020205061636B6574732073656E7406
:1015C0000A202020202020202020202020205061C0
:1015D000636B6574732064726F707065640A202099
:1015E0002020202020202020202020436865636BBD
:1015F00073756D206572726F72730A20202020202F
:10160000202020202020202044617461207061630C
:101610006B65747320776974686F75742041434BF0
:10162000730A20202020202020202020202020524B
:1016300065736574730A202020202020202020203C
:1016400020202052657472616E736D697373696FC7
:101650006E730A0920202020204E6F20636F6E6E6B
:10166000656374696F6E206176616C6961626C6537
:101670000A092020202020436F6E6E656374696F15
:101680006E20617474656D70747320746F20636C68
:101690006F73656420706F7274730A3C2F7072658B
:1016A0003E3C2F74643E3C74643E3C7072653E2543
:1016B00021206E65742D73746174730A3C2F7072EF
:1016C000653E3C2F7461626C653E0A3C2F63656E1B
:1016D0007465723E0A25213A202F666F6F74657219
:1016E0002E68746D6C0A00000000000050010008B4
:1016F00061010008D100000000000000E8160008A9
:10170000340200083E020008A100000000000000B2
:10171000FC160008E0020008ED020008E6040000E4
:101720000000000010170008D4070008E1070008B7
:10173000120000000000000024170008F407000851
:1017400001080008750200000000000038170008BA
:10175000780A0008840A00086A03000000000000FC
:101760004C170008F00D0008FB0D0008F7030000FF
:101770000000000060170008F4110008FF110008C5
:10178000D30000000000000074170008D412000805
:10179000DE120008C50000000000000088170008E5
:1017A000A4130008B1130008360300000000000075
:1017B0002DE9F04FA1B0804617461D46029102AEBA
:1017C0000020706211AC6FF000490AE017F8011BAD
:1017D0000298C0470290002800F07C82706A401C8A
:1017E0007062387808B9706A76E22528EED1002058
:1017F000F06030617061B061F061306201E040F032
:10180000010017F8011F2029F9D023290ED02B2918
:1018100004D02D2906D030290CD00FE040F0020072
:1018200080B2EEE740F0040080B2EAE740F0080042
:1018300080B2E6E740F0100080B2E2E72A290DD13D
:1018400029680A1D2A600968F162002904D5494205
:10185000F16240F0040080B27F1C11E00021F162CF
:1018600009E0F16A494505D001EB810302EB430130
:101870003039F1627F1C3A78A2F130010A29F0D3A5
:1018800039782E291CBF4FF0FF31B1621CD117F8F7
:10189000011F2A2906D129680A1D2A600968B16238
:1018A0007F1C11E00021B16209E0B16A494505D011
:1018B00001EB810302EB43013039B1627F1C3A78BE
:1018C000A2F130010A29F0D3308639780FF6E430DE
:1018D00000F014FE08B117F8010B8DF83A009DF8DE
:1018E0003A00682804D1387868280AD1622005E0D7
:1018F0006C2804BF38786C2803D171208DF83A0029
:101900007F1C11A8B0603A781046253825D01C38C5
:1019100075D0001F022872D9133800F09C80093856
:101920006DD0801E00F03781401E00F0DD80401E2B
:10193000022864D9001F00F0D780401F34D0401E19
:1019400000F08980401E24D0C01E0CD0801E00F004
:101950008280C01E00F07F8026E1F068411CF160AB
:10196000252101552AE12868011D29600068706061
:10197000B26A002A03D500F0DDFD30611EE10021CE
:1019800000F000FE00281ABF7168401AB06A30618A
:1019900014E12868011D296000680021CDE90001DB
:1019A00011A870607821F2E09DF83A00622818D002
:1019B000682806D06A280BD06C2819D0712807D067
:1019C00016E02868011D2960716A00680180F5E051
:1019D0002A68101D2860706AC1171268C2E90001E8
:1019E000ECE02868011D2960716A00680170E5E07B
:1019F0002868011D2960716A00680160DEE02868BE
:101A0000C01D20F007002860034603F1080028608D
:101A1000D3E90001CDE90001002904D5F068411C9B
:101A2000F1602D210DE0308E810704D5F068411C56
:101A3000F1602B2105E0C00704D5F068411CF1607E
:101A400020210155F06811A940187060114600A8C6
:101A500000F0D8F9B2E09DF83A306C2B08BF286846
:101A600011D0712B08BF286802D06A2B28680AD1D0
:101A7000C01D20F00700286084460CF10800286093
:101A8000DCE9000103E0011D296000680021CDE9C7
:101A90000001682B04BFDDE9000180B20BD0622B8E
:101AA00004BFDDE90001C0B205D0742B18BF7A2B4A
:101AB00004D1DDE900010021CDE9000196F83000F4
:101AC00000075FD5DDE90001002908BF002859D0D3
:101AD00042F02000782855D1F06830210155401C93
:101AE000411CF16002554DE09DF83A0062280CD08F
:101AF000682810D06A281AD06C2824D0712816D0F3
:101B0000742820D07A280CD01DE02868011D296097
:101B100090F900001BE02868011D2960B0F9000061
:101B200015E02868011D29600068002110E0286880
:101B3000C01D20F007002860034603F1080028605C
:101B4000D3E9000104E02868011D29600068C1177D
:101B5000CDE90001DDE90001002904DAF068411C4B
:101B6000F1602D210DE0308E810704D5F068411C15
:101B7000F1602B2105E0C00704D5F068411CF1603D
:101B800020210155F06811A940187060114600A885
:101B900000F0A5F812E0F068411CF16029680A1D08
:101BA0002A600968015509E0F068411CF1602521AF
:101BB00001551AB1F068411CF16002557F1CF06AB2
:101BC000F168401AB169401A3169401AF169401A46
:101BD0007169401A316AA0EB010A96F8300040079B
:101BE00011D420208DF84000BAF1010F0BDBD34651
:101BF000012310AA00A9404600F044FC002869D146
:101C0000BBF1010BF4D1F36811AA00A9404600F022
:101C100039FC00285ED130208DF84000D6F818B08D
:101C2000BBF1010F0ADB012310AA00A9404600F016
:101C300029FC00284ED1BBF1010BF4D13369726845
:101C400000A9404600F01EFC002843D130208DF84A
:101C50004000D6F81CB0BBF1010F09DB012310AA2C
:101C600000A9404600F00EFCA0BBBBF1010BF5D172
:101C7000736930697168421800A9404600F002FC9F
:101C800040BB30208DF84000D6F820B0BBF1010FEA
:101C900009DB012310AA00A9404600F0F3FBC8B9F4
:101CA000BBF1010BF5D196F8300040077FF599ADF7
:101CB00020208DF84000BAF1010FFFF692AD01230C
:101CC00010AA00A9404600F0DDFB18B9BAF1010ADC
:101CD000F5D186E54FF0FF3021B0BDE8F08F2DE95A
:101CE000FA4B86B005462F696F2908BF082605D034
:101CF00041F02000782814BF0A2610263C24D5E99C
:101D0000000181468B469DF81820642A18BF692A75
:101D100005D1002903DAD9F100096BEB4B0BBBF1BC
:101D2000000F08BFB9F1000F0CD1286B50B9082E75
:101D300044D195F83800000740D53B24302087F87F
:101D40003B003BE0A4F101084446F017CDE90460F4
:101D500048465946DDE9042300F040FCCDE9020184
:101D6000CDE9009BDDE90223DDE90401A0FB029B34
:101D7000DDE90001A0EB09003030C0B23A2803D3FE
:101D80009DF818105139081808F80700DDE9029B82
:101D9000BBF1000F08BFB9F1000F03D0E868E119EB
:101DA0008842CFD3082E09D195F83800000705D511
:101DB000E05D302802D0641E3020E055C4F13C00C4
:101DC000A861E119E960296B884207DA081A2862DC
:101DD000288F4FF6EF710840288710E000290ED5B4
:101DE00095F8381001F01401102908D1696B6A695F
:101DF000891A2A6A891A0C1A012CA8BF2C6208B009
:101E0000BDE8F08B2DE9F24F8EB0054604AFD5E961
:101E10000001CDE902019DF8380040F020008DF866
:101E2000000061280BD0286B002848BF062005D48D
:101E300004BF9DF80000672801D10120286369686C
:101E4000C1F30A5040F2FF7398421CD1080304BF4B
:101E50002868002809D10320A8619DF8380061385E
:101E60001A2837D30FF2606108E00320A8619DF8BB
:101E7000380061381A282AD30FF244610322E86837
:101E800000F024FCBBE1010017D1284600F059FC0A
:101E9000012812DB002400209DF80010612920D1C8
:101EA000E968302201F8012B4A1CEA609DF83820CD
:101EB000612A0CBF782258220FE040F2FE316A6896
:101EC00061F31E526A60441A4FF0FF30E4E70FF2EC
:101ED000EC51D3E70FF2EC51D0E70A706969891C25
:101EE000696110B90026B0467FE19DF800006128C5
:101EF00040F09780286B00284CBF2126461C36B244
:101F0000771CD5E900ABDDE902010022002300F0D7
:101F10003BFC3ABF8BF00040CDE902A0CDE902AB1B
:101F2000A4F104088DF810200DF11109012F33DB05
:101F3000DDE902010022002300F03EFC2CD21C212E
:101F400002A800F051FCDDE9020100F0DBFC0446D0
:101F5000FF1F012F09DB00F001FD02460B46DDE902
:101F6000020100F013FDCDE9020109F2070007218B
:101F700004E004F00F0200F8012D2411012C01DB14
:101F8000491EF6D5491E5CBF002200F8012DF9D587
:101F900000F20709012FCBDA0DF11100A9EB0001C6
:101FA0000DF11107B142B8BF0E4636B2002E31D442
:101FB0003046884206DA04A941184978082928BF22
:101FC0000F2100D2002104AA821800E0761E401ED4
:101FD00012F801398B42F9D00F2904D104A9411814
:101FE0004A78521C4A70002803D504AF761C08F1C9
:101FF000040836B2701E0DD4C1190A783032D2B23C
:102000003A2A03D39DF838303A3B9A1801F801294F
:10201000401EF2D5286B002840F1E780701E28632F
:10202000E3E0DDE902010022002300F0ADFB05D270
:10203000DDE9020181F00041CDE9020124B247F25D
:10204000975060436F4990FBF1F80FFA88F8C8F198
:1020500007040027DFF8B091012C19DBDDE902ABA2
:10206000E00707D5504659463A464B4600F04EFD2C
:1020700082468B466410384649463A464B4600F045
:1020800045FD07468946002CEAD1CDE902AB21E0A7
:1020900064429246DFF874B114D0E00707D5504689
:1020A00059463A464B4600F031FD82468B46641055
:1020B000384649463A464B4600F028FD07468946D1
:1020C000002CEAD1DDE9020152465B4600F0F0FD4A
:1020D000CDE902019DF8000066280CBF08F10A0056
:1020E0000620296B4618142EA8BF132630208DF821
:1020F00010000DF11104464F012E33DBDDE9020122
:1021000000F016FC04F1080104220A24B0FBF4F3E9
:1021100003EB830EA0EB4E00303001F8010DB3FB52
:10212000F4F000EB8004A3EB4403303301F8013DED
:10213000521EEAD101F10804083E012EDCDBDDE984
:10214000020100F0F5FB00F013FC02460B46DDE94E
:10215000020100F01BFC00223B4600F0D7FCCDE959
:102160000201CBE70DF11100201A0DF111079DF8C6
:102170001110302906D1401EA8F1010817F8011FDF
:102180003029F8D09DF80010662904BF0FFA88F8AE
:1021900008F1010103D065290CBF012100212A6B40
:1021A0008E1836B2B042B8BF064636B2002E1CD4E6
:1021B0003146814204DAC85D352828BF392000D273
:1021C0003020CA19521E00E0761E491E12F801394D
:1021D0008342F9D0392802D1C85D401CC855002976
:1021E00003D57F1E761C08F101080FFA88F00090D5
:1021F00033B23A469DF83810284600F00BF80FB07D
:10220000BDE8F08FA0860100000024400000F03FF0
:1022100084D797412DE9F04385B005468946174696
:102220001E46BDF93040D5F83080012E02DA012675
:102230000FF2982749F0200066280AD0672840F05E
:1022400086806FF003018C42C0F28780444580F2A3
:102250008480641C66280CD095F83800000702D4EE
:102260004645B8BFB04624B2B8EB040848BF4FF0AB
:102270000008E868A96924B2012C25DA4A1C302339
:102280000B54B8F1010F03DA95F83810090702D59D
:102290002E211154521CAA6118EB040FB8BFC8F1CB
:1022A000000424B261426962A044B045B8BF46460A
:1022B00036B2EE6132463946AB69181800F006FABC
:1022C000A8EB0600A862C6E00818A64218DA324653
:1022D000394600F0FBF9A9697118A961A01B686271
:1022E000B8F1010F03DA95F83800000705D5E86862
:1022F0002E220A54E869401CE861C5F82880AAE04B
:102300002246394600F0E2F9A8692018A861361B78
:10231000B8F1010F03DA95F83810090704D5411C0C
:10232000A961E9682E22425436B2B045B8BF46468C
:1023300036B23246E119A869EB68C01800F0C6F958
:10234000A8693018A861A8EB0600686283E0B9F1BB
:10235000610F16D14FF0700918E0464504DA95F880
:102360003810090758BFB046B8F1010848BF4FF010
:102370000008B9F1670F14BF4FF045094FF0650928
:1023800004E0B9F1410F08BF4FF05009A9694A1C98
:10239000E86817F8013B0B54B8F1010F03DA95F820
:1023A0003810090702D52E211154521CAA61B8F128
:1023B000010F11DB761E36B2B045B8BF464636B2C5
:1023C00032463946AB69181800F080F9A869301810
:1023D000A861A8EB06006862A869E968471807F8D1
:1023E000019B002C5CBF2B2007F8010B03D52D208F
:1023F00007F8010B644200260DF1080824B2012CF5
:102400000EDB0A22214600A800F075FD019808F8AD
:10241000010B009C761C24B2012CF2DA022E06DAA3
:1024200049F02000652804BF302007F8010B1EB9D1
:10243000302007F8010B09E0012E07DB761E02A809
:10244000305C303007F8010B012EF7DAA869E96833
:102450004018381AE86195F8380000F01400102888
:102460000DD16869A9690818696A0818E969081826
:10247000A96A0818696B8842BCBF081A286205B0AF
:10248000BDE8F083F8B504460D4616461F46002009
:1024900077B116F8011BA868A047A86030B1E86AB8
:1024A000401CE86200207F1EF3D1F2BD4FF0FF30E8
:1024B000F2BD0000686A6C747A4C00006E616E00B8
:1024C0004E414E00696E6600494E4600300010B421
:1024D00050F8041B81B102681218001D50F8043B2B
:1024E000DC0744BFA9F10104E31852F8044B43F898
:1024F000044B091FF9D1EBE710BC70470278C9B251
:102500008A421AB11CBF10F8012FF9E718BF00204A
:10251000704750F8041B61B150F8042BD30744BF37
:10252000A9F101039A18002342F8043B091FFAD1CC
:10253000EFE7704700F10103810704D010F8011B99
:1025400089B18107FAD10268B2F10131914311F0EA
:10255000803F04BF50F8042FF6E710F8011B11B1BB
:1025600010F8011BFBE7C01A70478268521C82609A
:10257000426832B10268531C036011704168491E01
:1025800041607047C9B2830706D0521E22D310F8AB
:10259000013B9942F7D11FE0083A13D302F104023C
:1025A00041EA012141EA014150F8043B121F21BFD9
:1025B0004B40A3F1013C2CEA030C1CF0803FF3D00C
:1025C000C9B2001F083210F8013B521E28BF91EA21
:1025D000030FF8D818BF0120401E70471B4213D1CB
:1025E000094236D12AB18446B0FBF2F002FB10C298
:1025F000704700F087BCFCD30022002370470B001B
:102600000200002100207047904271EB030CF6D3CA
:1026100070B5B1FA81F4B3FA83F52C1BA340C4F171
:10262000200532FA05F63343A2405FF00046E6404B
:1026300002E05B085FEA3202841A71EB030524BFF3
:10264000204629467641F4D302000B0030000021D9
:1026500070BD012ACFD970B5140C20D0B1FA81F425
:10266000B2FA82F5C4F120046419B4F12006D6D37D
:10267000B2405FF00044F440002502E052085FEAF7
:102680003303C61A71EB020E24BF30467146644113
:102690006D41F3D302000B002000290070BD0C46F1
:1026A000B1FBF2F102FB11452D0445EA1045B5FBE3
:1026B000F2F402FB145580B240EA0545B5FBF2F096
:1026C00002FB105240EA044070BD000062B38B0769
:1026D00008D0521E11F8013B00F8013B00F02480A5
:1026E0008B07F6D1830740F0208000BF103A07D354
:1026F00030B4B1E83810103AA0E83810F9D230BC44
:10270000530724BFB1E80810A0E8081044BF51F8EF
:10271000043B40F8043BD20724BF31F8022B20F8D9
:10272000022B44BF0B7803707047083A07D3B1E817
:102730000810083A40F8043B40F804CBF7D253079E
:10274000E4E730B4416801F00042012143681B0313
:102750001B0B436004BF0368002B0ED00368446862
:10276000DD0F45EA440444605B000360491EE30258
:10277000F4D543681B031B0B436043681A43426054
:10278000084630BC704700004FF4001C1CEB410FA2
:1027900094BF1CEB430F09E041EA030C50EA4C0CD8
:1027A00052EA0C0C03D2994208BF9042704714BF02
:1027B0008B428242704700004FF4001C1CEB410F1B
:1027C00094BF1CEB430F09E041EA030C50EA4C0CA8
:1027D00052EA0C0C03D28B4208BF8242704714BFEE
:1027E000994290427047000070B504460D466068FB
:1027F000C0F30A5040F2FF72904207D160680003B4
:1028000004BF2068002818D0022070BD010004D148
:102810002046FFF796FF012867DA012D0FDB40F213
:10282000FF71091A8D420AD36068002847BF002053
:102830002F4900202F49C4E90001012070BD414209
:10284000A942616806DA2C4A1140401941EA005059
:10285000606053E001F0004162681203120B42F421
:1028600080126260401E451905F13500352803D3FA
:1028700061600020206070BD002215F11F0F05DA95
:10288000203522686068206000206060684213D0B4
:10289000521E9241D243C0F1200325689D4055EA63
:1028A000D2722568C540666806FA03F32B4323609D
:1028B000636823FA00F06060606808436060B2F10A
:1028C000004F03D80BD12078C00708D52068401CE2
:1028D0002060206818B96068401C60600EE0606885
:1028E000884204BF20680028F8D1002070BD000095
:1028F0000000F0FF0000F07FFFFF0F804FF0FF307F
:1029000070BD0000F446400D40EAC120490006D2E7
:1029100000F014F8004248BF6FF00040604700F03C
:102920000DF84FF0004188428CBF08464042604796
:10293000400D40EAC120490080F00D8040F0004089
:10294000490DA1F58061491C05D4D1F11F0154BF87
:10295000C840C01770474FF000007047010040F1B9
:102960000980F446404200F005F851F0004160470C
:10297000010000BF09D0B0FA80F18840C91CC1F540
:102980008461090501EBD0214005704770B44FF018
:10299000004591EA030F44BF6B4000F0B5BA00BF99
:1029A000841A71EB030604D26E40001BB141121968
:1029B00073414FF4001C1CEB410F34BF7CEB43060A
:1029C00084E00C0DA4EB1356362E7DDC012E43DC87
:1029D00045EAC32343EA525312BFD20292025B0874
:1029E000240545EAC12141EA5051D2EBC02099416A
:1029F00025D407D1B0FA80F610FA06F164D0002091
:102A0000203608E0B1FA81F6B140C6F1200220FA82
:102A100002F21143B0404FEAF474B4EB465434F080
:102A200001064FEA74040AD8D6F50016760D04F0B4
:102A30000044F04061FA06F25040F1404840C00ABC
:102A400040EA415021F0004128BF5FEA500550F1B3
:102A5000000044EBD12137E045EAC323DB0A45EA15
:102A6000C121C90AB6F120050EDD42EA0242120C6C
:102A7000C5F1200603FA06F6EB4042EA06056D4270
:102A8000984161F100010DE062FA06F5F24055400F
:102A900063FA06FC82EA0C02F3405A406D42904110
:102AA00061EB030111F4801F05D1641E620502D0A1
:102AB0006D004041494121F48011430875F1004304
:102AC00050F1000041EB045170BC70471CEB410F0A
:102AD00015D223F0004352EA43060BD04FEA4C0CC8
:102AE000BCEB410F04D80C0D661E342EB7DDEBE7AE
:102AF000801A994150EA410608BF0021E4E708BF67
:102B00001CEB430F28BF6FF00001DDE7B0B581EA91
:102B1000030C0CF0004C40F2FF7515EA11541DBF78
:102B200015EA1357AC42AF4239E0E41923EA4553A2
:102B300043F48013C90241F0004141EA505EC702EC
:102B40001100A7FB020200284FF00000EEFB01205D
:102B50004FF00001E3FB072118BF42F001024018CB
:102B600000214941E3FB0E01A4F580640F0302D26A
:102B700052004041494154F101046CDD470872F1B3
:102B8000004250F1000051EB0451A1F580115CBFEF
:102B900041EA0C01B0BD4CEA05510020B0BD05EA88
:102BA0001357AC4214BFAF4241E050EA410E1CBF84
:102BB00052EA430E02E061460020B0BD24423C448C
:102BC0001BD15FEA070EF6D0090302BF01460020C1
:102BD000AEF1140EB1FA81F7AEEB070401FA07FE6D
:102BE0000C37C7F1200100FA07F7C8404EEA000E83
:102BF00023EA455343F48013A2E733F00043B3FACA
:102C000083F704BFB2FA82FE77440B3FE41BB7F1AF
:102C1000200E2FBF02FA0EF3BB40C7F1200E22FA9E
:102C20000EFE38BF43EA0E03BA40641C82E750EA46
:102C3000410E14BF52EA430E6FF000014FF400172B
:102C400017EB430F8ABF194617EB410FB5E74CEA64
:102C500005510020B0BDD4F10104B4F120070FDA12
:102C6000C4F12007520828BF42F0010210FA07F50C
:102C700001FA07F7E1BF2A43E0403843E1400FE0A3
:102C8000352C98DCC7F1200452EA400220FA07F202
:102C900018BF42F0010231FA07F0A1400A430021B7
:102CA00072F1004250F1000051EB0C01B0BD000088
:102CB000F0B540F2FF7581EA030C0CF0004C15EA08
:102CC00011541DBF15EA1357AC42AF42E5E0BC41B9
:102CD000C1F31301C3F31303801A994143F4801322
:102CE00004D2641E4000494180185941C90241EA9A
:102CF0005051B1FBF3F603FB1611A2FB0675D7EB9F
:102D0000C020A94102D2761E80185941C90241EA69
:102D10005051B1FBF3FE03FB1E11A2FB0E75D7EB66
:102D2000C020A94103D2AEF1010E80185941890299
:102D300041EA9051760546EA8E2EB1FBF3F603FB8D
:102D40001611A2FB0675D7EB8020A94102D2761E90
:102D500080185941C90241EA50514EEA060EB1FBB2
:102D6000F3F603FB1611A2FB0675D7EBC020A941B1
:102D700002D2761E80185941C90241EA5051B1FB76
:102D8000F3F703FB1711A2FB0735D3EBC020A941D2
:102D900067F100070CBF004247F0010766F3D52733
:102DA0004FEA1E31B80814F5806412DDBD0775F1D5
:102DB000004250EB0E5051EB045111F5801F5CBFE7
:102DC00041EA0C01F0BD4CF07F6141F0E041002090
:102DD000F0BDBD076D0840EA0E5041F48011D4F1FA
:102DE0000104B4F120060ADAC4F120060200E04032
:102DF00001FA06F3E1401843B24015430EE0342CCB
:102E000013DCC6F1200445EA40056D0820FA06F2FD
:102E1000154321FA06F0A1400D43002175F100424F
:102E200050F1000051EB0C01F0BD00205FEA0C01F5
:102E3000F0BDCFB992185B41B3FA83F704BFB2FA81
:102E400082F6BF190B3FB7F120062FBF02FA06F337
:102E5000BB40C7F1200622FA06F638BF3343BA401A
:102E60001CB1E419641E33E77F4231F00041B1FA2E
:102E700081F404BFB0FA80F6A4190B3CB4F120062B
:102E80002FBF00FA06F1A140C4F1200620FA06F691
:102E900038BF3143A0403C1B1AE7AC421ABF05EAD9
:102EA0001357AF4212E050EA41061CBF52EA4306F4
:102EB000BFE750EA4107304661461CBF41EA055171
:102EC000F0BD52EA430C08BFC143F0BD00204FF4EF
:102ED000001616EB410F98BF16EB430F08BF16EB19
:102EE000410F24BFC14305E016EB430F0CBF614601
:102EF0004CEA0551F0BD91FBF2F303FB1211C0E95E
:102F00000031704770470000841A71EB030603D24A
:102F1000001BB141121973414FF4001C1CEB410F0F
:102F200034BF7CEB430443E00C0DA4EB1356352E69
:102F300050DC45EAC323DB0A45EAC121C912B6F1D8
:102F400020050DDD63FA05F6EB4086EA0305124223
:102F500018BF45F00105C01851F100010CD213E073
:102F600062FA06F5F2405540F3415A40B340F3404F
:102F70005A408018594107D349085FEA30005FEA98
:102F8000350528BF45F0010501F58011420875F1AE
:102F9000004250F1000041EB045170BC4FF4001CA2
:102FA0001CEB410F38BF70470020090D0905704721
:102FB0001CEB410F10D252EA43060BD0BCEB410F81
:102FC00005D80C0DAB43661E342EB5DD02E0AB43D5
:102FD0008018594170BC704770BC704770B4C2789B
:102FE0008B18DFF8C02BD371857815EB11259571FF
:102FF0004678567100781071EDB2B5EB112F06D2FC
:10300000741C5471E4B2002C01D1401C1071DBB26D
:10301000C8B283420DDA681C9071C0B2002808D192
:103020005079401C5071C0B2002802D11079401C68
:10303000107170BC704710B45218521E0AE00B7821
:103040004C7804EB03239BB2181880B2984200D24C
:10305000401C891C9142F2D307D1097810EB012062
:1030600080B2B0EB012F00D2401C80B210BC704780
:1030700080B51422DFF8301B0020FFF7DCFF0028AA
:1030800002D14FF6FF7002BDBDE8024000F078BDEE
:1030900038B5DFF8184B217C627C02EB0121A1F1ED
:1030A0001405082204F11A01401980B2FFF7C3FF8A
:1030B0002A4692B204F12201FFF7BDFF002802D197
:1030C0004FF6FF7032BDBDE8324000F059BD06201A
:1030D000DEE7DFF8D00A002101720B4604E000EBC6
:1030E00041021382491C0172017A2829F7D319463B
:1030F000017208E0CC22DFF8B83A02FB013200236B
:103100005376491C0172017A2829F3D34FF4806168
:10311000C181704710B4DFF88C1A00220A7201E0F6
:10312000521C0A720A7A282A05D201EB42031C8A31
:10313000002CF5D1188210BC704738B5DFF8644A0E
:10314000656E014605F10800FFF748FF20792872F7
:10315000606E61794172606EA1798172606EE17911
:10316000C17231BD2DE9F843DFF8385A6F6EDFF8D0
:10317000444ADFF8386A06F23601A163296603285B
:103180000ED1787E00F00F00032803D1388A002882
:1031900000F07E800020A08684F82C00BDE8F1833A
:1031A000022840F07B80E878401CE870C0B200281C
:1031B0000ED1A878401CA870C0B2002808D1687849
:1031C000401C6870C0B2002802D12878401C2870CA
:1031D0000020A0866881787E072801D0052808D1C4
:1031E000B87E401CB876C0B27828D3D1002078765B
:1031F000D0E70028CED0398A002944D0B87E411EBD
:10320000B9760028C6D1F87E082806D0797E022932
:1032100001D001290ED105280CD10020787680201C
:1032200084F82C0000F088FF06F12E001421417074
:1032300000F0FFBB052800D30420032101FA00F0B1
:10324000B876F87E401CF876E08C401CE084787EEE
:1032500000F00F00401E07289CD8DFE810F07E0227
:1032600009000E003303080033030800330391E71D
:1032700006F12E000021417073E2042084F82C0036
:1032800000F05AFF8CE300F00F0003287FF482AFB8
:10329000082084F82C0000F04FFF50E32088401CE9
:1032A0002080B07B452806D0A088401CA080E08804
:1032B000401CE0806EE706F20E0999F8020099F8CA
:1032C000031001EB0020A18E8142FFF663AFA086C0
:1032D00099F806003F21084203D199F80700002819
:1032E00006D0A088401CA080A089401CA08151E786
:1032F000208E002802D1618E00290CD0B9F8101060
:10330000814204D1B9F81200618E884203D0A088AE
:10331000401CA0803EE74FF6FF77FFF7A9FEB842BA
:1033200006D0A088401CA080E089401CE08131E7E5
:1033300099F8090006280AD1608B401C6083FFF7CA
:10334000C6FEB84239D1DFF8680807463EE00128DA
:1033500006D0A088401CA080208A401C208219E74B
:10336000608A401C608296F82200082806D0E08A15
:10337000401CE082208B401C20830BE7002086F855
:103380002200B08C4FF6F771884202D30930B08426
:1033900001E00830B084B9F80C00A9F81000B9F8C1
:1033A0000E00A9F81200208EA9F80C00608EA9F872
:1033B0000E00A08A401CA082DAE3E08B401CE08370
:1033C000208C401C2084E5E607F2CC0700F5F8517C
:1033D0001431B942C0F0C280797E0029F4D0B9F826
:1033E0001610BA889142EFD1B9F81410FA889142B8
:1033F000EAD1B9F80C103A889142E5D1B9F80E102B
:103400007A889142E0D16F66002084F82C0006F2A1
:103410002E0898F80100410700F1C38196F82E109C
:10342000090989002972A28E511A1439A1867A7E5F
:1034300002F00F02022A03D100F03F02122A1DD02F
:1034400089B2002902D10322104217D099F818102E
:103450003A7A914240F0EA8299F819107A7A9142C8
:1034600040F0E48299F81A10BA7A914240F0DE8274
:1034700099F81B10FA7A914240F0D882C00642D5E2
:10348000398A00293FD007F10C00FFF7A7FD287902
:1034900099F81C10814236D199F81D106A79914231
:1034A00031D199F81E10AA7991422CD199F81F10A8
:1034B000EA79914227D1387368797873A879B8731B
:1034C000E879F873F87E002816D1B87D97F91810BE
:1034D00097F91A20891AA1EBD00149B20818B875DA
:1034E000080000D54042F97D4018A0EB9100F87526
:1034F000B97D00EBD1003876012084F82C00387EAD
:10350000B87600203882787E00F00F01491E072926
:103510003FF640AEDFE811F009004D01B2016D0247
:10352000D202ED028A025F0234E694F82C00C00752
:103530007FF530AE03207876402084F82C00002000
:103540003882A08E002800F0F68194F82C1041F00B
:10355000020184F82C10FFF7F0FDECE106F12E01DA
:10356000497801F03F01022916D1B9F81610E18619
:1035700000222A7201E0521C2A722A7A282A08D2D2
:1035800005EB42031B8A9942F5D10027394629727F
:1035900071E0608D401C608506F22E0898F80100ED
:1035A00040073FF5F7ADA08C401CA084142088F89C
:1035B00001002820A086502086F82E0099F81B00D4
:1035C000287299F81F1089F81B1089F81F0099F8C4
:1035D0001A10297299F81E2089F81A2089F81E10ED
:1035E00099F819202A7299F81D3089F8193089F84C
:1035F0001D2099F818302B7299F81C7089F81870F2
:1036000089F81C30401C89F81F00C0B200280ED178
:10361000481C89F81E00C0B2002808D1501C89F847
:103620001D00C0B2002802D1581C89F81C00B9F84E
:103630001400E086B9F81610A9F81410A9F81600BD
:10364000B9F80C00A9F81000B9F80E00A9F812009A
:10365000208EA9F80C00608EA9F80E005AE2072906
:1036600007D1002F04D0B97E92F81AC0614500D26C
:103670001746591C29722B7A282B06D2CC2101FB24
:103680000302517E0029EAD11746002F03D1208D75
:10369000401C20857EE56F660320B87638760020D2
:1036A000B8750420F8750020F876B9F81600B880CF
:1036B000B9F81400F880B9F80C003880B9F80E0099
:1036C0007880012078762878387368787873A878BD
:1036D000B873E878F8730120388299F81B00F87203
:1036E00099F81A00B87299F81900787299F81800C8
:1036F00038720120FFF721FD96F82E0000F0F0014E
:1037000051292ADB0021297201E0491C2972297AFA
:103710000A4603095B1FB2EB830F1EDA921992F877
:10372000363084F82D30002B17D0012BEDD002F26B
:10373000360292F801C0022B2DD1BCF1040F2AD120
:103740009078D17841EA0020E08640F2BB5188426F
:1037500001D340F2BA507882B88206F12E001021CF
:10376000417006F22E0898F8010040F0020088F837
:103770000100022088F80800042088F809000520CC
:1037800088F80A00BA2088F80B002C20A086602058
:1037900086F82E0052E1BCF1000FDED061442972A0
:1037A000B5E700207876202084F82C0000F0C4FCD7
:1037B000F0E494F82C00C00757D598F8010000F009
:1037C0003F00122851D196F82E0000F0F001512947
:1037D0002ADB0021297201E0491C2972297A0A4654
:1037E00003095B1FB2EB830F1EDA921992F8363091
:1037F00084F82D30002B17D0012BEDD002F23602C9
:1038000092F801C0022B2AD1BCF1040F27D1907885
:10381000D17841EA0020E08640F2BB51884201D3D2
:1038200040F2BA507882B8820320787699F818006E
:10383000387299F81900787299F81A00B87299F8E4
:103840001B00F8720120FFF778FC422084F82C005E
:1038500000203882A086688100F06EFC6FE0BCF129
:10386000000FE1D061442972B8E7202084F82C00D1
:1038700000F062FC686E002141768DE698F8011038
:10388000CA0724D5C00622D4388A00287FF482AC27
:10389000A08E401C80B2FFF750FC94F82C0040F042
:1038A000100084F82C00A18E002903D040F0020003
:1038B00084F82C0000F040FC012038820820787643
:1038C0000020F87606F12E0011214170B1E0880643
:1038D0000DD598F8070098F8061040EA0122A36B6E
:1038E000D218A263A28E40EA0120101AA086A08EF0
:1038F00000280AD0797EC90607D494F82C1041F02C
:10390000020184F82C10FFF718FC98F8020098F8D0
:10391000031001EB0020E086B88AE18E884201D3D3
:10392000002900D1E086E08E788294F82C000321F3
:1039300008423FF42FAC0020688100F0FDFB94F8B2
:103940002C00810607D500206881787606F12E00CC
:10395000142141706DE0C1060CD500206881012062
:103960003882042078760020F87606F12E001121A6
:1039700041705EE06989002910D0C00701D50020A0
:103980003882388A002808D1788A6989884200D923
:10399000084668816889388200E068810020F876EE
:1039A000286EA0636889002809D0388A002806D0CC
:1039B0002830A08606F12E00182141703BE094F8D3
:1039C0002C0080077FF5E6AB2820A08606F12E00AC
:1039D000102141702FE094F82C00C0077FF5DAAB7E
:1039E00000207876102084F82C0000F0A5FBFFF76B
:1039F000D1BBA08E002801D0FFF79FFB94F82C00CC
:103A000098F80110C90751D5C00705D50720787669
:103A10000020B876388201E0062078760120FFF792
:103A20008CFB102084F82C0000F086FB102088F816
:103A300001002820A086502086F82E0006F20E09EC
:103A4000387A89F81C00787A89F81D00B87A89F8E4
:103A50001E00F87A89F81F00387B89F81800787BF7
:103A600089F81900B87B89F81A00F87B89F81B00DF
:103A7000062089F80900B888A9F81400F888A9F880
:103A80001600208EA9F80C00608EA9F80E00388868
:103A9000A9F810007888A9F8120006F22E08787E9E
:103AA000C00631D50020A8F8020033E0C0071BD5BE
:103AB0000520787600203882FFF76CBBA08E0028A6
:103AC00001D0FFF73AFB98F80100C0070CD507209A
:103AD00078760020B8760120FFF72FFB102084F8BD
:103AE0002C0000F029FBA1E7A08E00289ED1FFF753
:103AF00051BB94F82C00C0077FF54CAB07207876BB
:103B00000020B876FFF746BB052088F80200BA20EF
:103B100088F80300402089F80800A08E010A89F87F
:103B2000021089F803000020A8F80600A8F8040095
:103B3000FFF7CDFAC043A8F804004520B073002079
:103B400089F80100A9F80600A889401CA88180B264
:103B5000010A89F8041089F805000020A9F80A0074
:103B6000FFF786FAC043A9F80A00A08B401CA08387
:103B70006088401C6080002084F82C00FFF70EBB9A
:103B8000010A41EA002080B27047012909DB054A99
:103B90005181136E984204D052890146184600F0B4
:103BA00037BB70470832002042200020342000201C
:103BB00054000020D832002010B5DFF8F015096855
:103BC000498A00F298046268914201DAA16000E03B
:103BD000A260A268D0F89810DFF8D405006800F061
:103BE00017FBA06880B210BD38B5044601208DF8DF
:103BF0000000208D002802D0642802D018E0642044
:103C0000208504F228052246DFF8A815284600F092
:103C1000A9FB002801D1002032BD686FA96F401AAE
:103C20006867A86F296F40182867686F0128E6DA6F
:103C300000208DF800002085022032BD10B582B032
:103C4000044601208DF80000208D002802D0712844
:103C500002D00BE07120208504F22800826F016FF2
:103C600000F051FB002801D1002016BD00208DF886
:103C700000002085022016BD10B504460A21D4F8A4
:103C8000A400FEF73BFC401C04F2A4014A68D4F8EF
:103C9000A430C31A9BB2D21A4A60C4F8A40010BD63
:103CA00070B582B0044601208DF80000B4F84E00D3
:103CB000002806D0902823D093282AD0B12864D099
:103CC00077E004F298056868012872DBD4F8981050
:103CD0000A78252A33D14A78212A30D101F203000B
:103CE000E8606868C01E2861E86810F8011C3A297D
:103CF0000CD12946401C00F001FC9020A4F84E0095
:103D00002046FFF771FF00280ED143E09320A4F86E
:103D10004E0004F29805E86800F035FC0246E968B8
:103D200020469047002835D02046FFF7A5FF04F233
:103D30009805E868C4F8980028696860C1E7DFF86A
:103D40006C643168498A814200DD0146A960D4F87B
:103D500098000178252904D12521401CFEF7CEFBCF
:103D600002E02521FEF7CAFB00280BD0D4F89810FA
:103D7000884207D0401AA8603068408AA96881420A
:103D800000DBA860B120A4F84E002046FFF756FFE4
:103D9000002801D1002076BD04F29805A868D4F867
:103DA00098104018C4F898006868A968401A6860BC
:103DB00087E700208DF80000A4F84E00022076BDB1
:103DC00038B504460D4601208DF80000208D0028EE
:103DD00013D0C22813D0C62826D0C9284AD0CB2851
:103DE0005ED0CD2872D0CF2800F08680D12800F098
:103DF0009980D32800F0A58024E0C22020852846A1
:103E0000FEF798FB0246294604F1280000F07BFAF1
:103E1000002800F0A3802E2104F1820000F006FDAE
:103E2000050015D1C6202085DFF88C532846FEF703
:103E300081FB0246294604F1280000F064FA0028BC
:103E400000F08C8000208DF800002085022032BD1B
:103E500005222946DFF8640300F0EAFC002807D0B9
:103E600006222946DFF8580300F0E2FC00280ED1B4
:103E7000C9202085D34D2846FEF75CFB0246294623
:103E800004F1280000F03FFA0028DBD166E00422AC
:103E90002946CD4800F0CCFC00280ED1CB2020854F
:103EA000CA4D2846FEF746FB0246294604F1280083
:103EB00000F029FA0028C5D150E004222946C44860
:103EC00000F0B6FC00280ED1CD202085C14D28463B
:103ED000FEF730FB0246294604F1280000F013FAF1
:103EE0000028AFD13AE004222946BB4800F0A0FCEC
:103EF00000280ED1CF202085B84D2846FEF71AFBAA
:103F00000246294604F1280000F0FDF9002899D165
:103F100024E004222946B24800F08AFC00280ED191
:103F2000D1202085AF4D2846FEF704FB02462946E6
:103F300004F1280000F0E7F9002883D10EE0D32037
:103F40002085A94D2846FEF7F5FA0246294604F1D8
:103F5000280000F0D8F900287FF474AF002032BDAB
:103F6000F8B5044601208DF80000B4F84C00002894
:103F70000AD0E4281ED0E62825D0EA2835D0EE283D
:103F80004CD0F12853D026E004F2820504F29806C2
:103F90003146284600F0B2FA002823D1934F31462B
:103FA000384600F0ABFA3946284600F057FCE420CA
:103FB000A4F84C008E492046FFF702FF00283BD0B2
:103FC000E620A4F84C002046FFF70EFE002833D070
:103FD00088481021017000208DF80000A4F84C00E2
:103FE0000220F2BDEA20A4F84C0083492046FFF7E6
:103FF000E7FE002820D02E2104F18200FEF77EFA91
:10400000002811D006226E4900F012FC00280BD1C6
:104010000020A4F84E00EE20A4F84C002046FFF744
:104020003FFE0028D4D107E0F120A4F84C00204640
:10403000FFF7DAFD0028CBD10020F2BD70B582B0C9
:10404000044601208DF80000A088002806D0FD3825
:1040500006D0801F15D0123843D05AE0FD20A08032
:104060002021201D00F0D5F9002840D0042263490A
:1040700004F1500000F0DCFB00280CD140F20310EA
:10408000A0802021201D00F0C4F900282FD094F832
:1040900050002F2806D05748102101700020A08022
:1040A000012076BD04F2820504F2500670782028C3
:1040B00005D114225249284600F0F2FB0BE0201DE6
:1040C00000F08BF90019002180F84F1014223146BE
:1040D000284600F0E5FB012084F8960040F2151018
:1040E000A0800A21201D00F094F9002801D10020B1
:1040F00076BD0822434904F1500000F099FB0028E6
:10410000ECD1201D00F069F90019002180F84E1053
:10411000E4E700208DF80000A080022076BD10B5F5
:104120000446FFF78BFF94F89600012803D1204640
:10413000BDE8104014E710BD10B51C48006800F23F
:104140001C042C480178B02211422DD14A0616D504
:10415000312204F15001201D00F0AAF9312204F1AE
:10416000500104F1280000F0A3F90020A4F84C004D
:1041700084F8960020702046BDE81040CFE7002C60
:1041800010D0090708D52178491C2170C9B214291B
:1041900004D32021017001E0002020702046BDE8FA
:1041A0001040BCE72021017010BD00006C320020DF
:1041B00010330020B93B0008B8620008E462000830
:1041C000EC62000828620008F462000844620008FB
:1041D000FC62000860620008046300087C6200085A
:1041E0000C6300089862000808620008406100083B
:1041F000AC61000804330020586100082C610008FD
:10420000346100084C6100084FF4A040FEF782BF03
:1042100010B50446FEF75AFA204610BD01608280B0
:10422000704730B41C888588002D17D0002C15D01D
:10423000046815682D7825700468247815686D1C4D
:10424000156005686D1C05601D886D1E1D808588C4
:104250006D1E85808C42E5D1022012E0002C01D138
:1042600000200EE0188800280AD014682478401E28
:1042700018801068401C10608C42F3D1032000E0CD
:10428000012030BC704710B5044694F82000062881
:1042900003D183480078400711D582480068418ADD
:1042A0006068228A914202D2FFF76FFC02E0114659
:1042B000FFF76BFC062084F82000012010BD0020D1
:1042C00010BD90F8201006291BD175490978C9073F
:1042D00017D574490A68528A038A9A4207D29A1AF1
:1042E00002820968498A42688918416004E041688D
:1042F0005918416000210182012180F820100846F0
:1043000070470020704738B5044601208DF8000042
:104310006088002802D0CF2810D01DE0002A03D1E9
:1043200000206080012032BD61602282002084F87C
:104330002000208A00280CD0CF2060802046FFF784
:10434000C0FF05462046FFF79EFF0542F1D1002041
:1043500032BD002084F8200000208DF8000060802D
:10436000022032BDF8B504460D46164601208DF8F0
:1043700000006088002802D0EE2817D027E028002F
:1043800003D1002060800120F2BD3046A847208282
:10439000454800686060002084F8200040480078AC
:1043A000400701D53046A847EE2060802046FFF741
:1043B00088FF07462046FFF766FF074201D100202D
:1043C000F2BD208A0028E9D1002084F820000020D6
:1043D0008DF8000060800220F2BDC169008B081AD0
:1043E00080B27047418A002901D00120704790F8BF
:1043F0002010022904D1032180F8201000207047EA
:104400002748007800F00201481E8041C043C00FD9
:10441000704738B504460D4601208DF800006088CD
:10442000002804D040F21B1188420DD031E0E2692F
:1044300092B2E16804F11400FFF7F0FE608A0028F0
:1044400012D140F21B1060802046FFF7CBFF0028FE
:1044500001D1002032BD022084F8200012480068FB
:10446000A06012480088608204F1120304F108027F
:10447000294604F11400FFF7D4FE8007DED520465C
:10448000FFF7ABFF002804D1002084F820006080F3
:1044900032BD00208DF800006080022032BD000097
:1044A000043300206C320020103300200C33002035
:1044B00010B50446002084F820006082E160E261CB
:1044C00092B204F11400FFF7A9FE00202080608062
:1044D00010BD000010B4002201E0521CD2B2535CA7
:1044E000002B04D0145C0D2C01D00A2C01D100202B
:1044F00002E09C42F1D0012010BC7047F8B505469F
:104500000E460024184F01E0641C3F68002F12D0B3
:1045100079682846FFF7DEFF0028F5D1B8683060DB
:10452000F8687060A4B2114830F81410491C20F8E3
:1045300014100120F2BD0020F2BD70B50446002524
:10454000094E01E06D1C3668002E0AD071682046C5
:10455000FFF7C0FF0028F5D1ADB2044830F81500D0
:1045600070BD002070BD00009C17000814330020AF
:1045700081B001218DF8001000218DF80010018517
:10458000022001B0704738B50446854D00E02D1D6E
:10459000286800280DD00068FDF7CCFF02462146B0
:1045A0002868006800F044F90028F0D128684068C5
:1045B00032BD7C4832BD80B5FFF7BFFF034677A20E
:1045C00040F2BA517848006800F0A0F980B202BD0C
:1045D00010B582B00446084601218DF80010218DE7
:1045E000002902D0612902D00EE06121218520211D
:1045F000FDF784FF421C6D4904F12800FFF7B2FE6D
:10460000002801D1002016BD00208DF80000208573
:10461000022016BD2DE9F04F8BB0B0F8AC00CC21D4
:10462000634A01FB0024607EC00601D5212500E01D
:104630002025208A002802D04FF02A0B01E04FF0FD
:10464000200BE088FFF79CFA06466088FFF798FA8F
:1046500007466088FFF794FA80462088FFF790FAB3
:1046600081462088FFF78CFA8246A088FFF788FAF7
:1046700003460995CDF820B0A07E0790E07E069015
:10468000607E00F00F004B4951F820000590049621
:10469000F8B203904FEA182002905FFA89F0019077
:1046A0004FEA1A2000900FF21C1240F2BA513E4815
:1046B000006800F02BF980B20BB0BDE8F08F10B5A8
:1046C00082B0044601208DF80000208D002802D021
:1046D000AB2811D020E00020A4F8AC00B4F8AC0066
:1046E000282819D2CC21324A01FB0020407E0F211C
:1046F00008420BD0AB20208522462F4904F1280028
:10470000FFF730FE002801D1002016BDB4F8AC0040
:10471000401CA4F8AC00E1E700208DF800002085E3
:10472000022016BD80B5B0F8AC00244931F8103035
:104730000FF2F00240F2BA511B48006800F0E6F8B0
:1047400080B202BD10B582B0044601208DF8000091
:10475000208D002802D0C32809D018E00020A4F83A
:10476000AC00B4F8AC00162811D2C3202085224634
:10477000134904F12800FFF7F5FD002801D10020BE
:1047800016BDB4F8AC00401CA4F8AC00E9E700206A
:104790008DF800002085022016BD0000253575002B
:1047A000380000207145000810330020B74500088C
:1047B000540000200000002015460008D8320020D8
:1047C000254700083C74723E3C74643E25643C2FCF
:1047D00074643E3C74643E25752E25752E25752E19
:1047E00025753A25753C2F74643E3C74643E2573F0
:1047F0003C2F74643E3C74643E25753C2F74643ECB
:104800003C74643E25753C2F74643E3C74643E25C4
:10481000632025633C2F74643E3C2F74723E0D0A66
:10482000000000002535750A0000000000F090B877
:1048300001E0491C521E72B10B7890F800C09C45F3
:1048400005D002D24FF0FF3070470120704710F8BA
:10485000013B002BEDD10020704700005FEA000C07
:10486000830706D011F8013B00F8013BB3B1830781
:10487000F8D10A68B2F1013323EA020313F0803F52
:1048800002BF40F8042B51F8042FF3E711F8013B65
:1048900000F8013B13B111F8013BF9E7604670479E
:1048A00001B58B0718D1121F21D351F8043BA3F196
:1048B000013C2CEA030C1CF0803C04BF40F8043B94
:1048C000F1E79CFA8CFCBCFA8CF1C1F118018B4029
:1048D000CB4040F8043B13E0042A09D311F8013B14
:1048E000521E00F8013B5BB18B07F7D1DBE7121DCD
:1048F0005AB111F8013B521E00F8013B03B1F8D147
:1049000011001CBF002200F033F801BD08B400B54F
:1049100084B005AB03930023029311B90093019374
:1049200002E00090481E019003AB00A907487844BC
:104930001A30FCF73DFF009909B100220A700028E7
:1049400058BF029804B05DF808FB00BF1FDCFFFFF2
:10495000C9B2002203788B4208BF024610F8013B1F
:10496000002BF7D11046704762F30F2262F31F420B
:10497000401810F0030308D0C91A1FD3DB0748BF43
:1049800000F8012D28BF20F8022D130030B4144682
:104990001546103928BF20E93C00FAD8490728BF3E
:1049A00020E90C0048BF40F8042D890028BF20F8FA
:1049B000022D48BF00F8012D30BC7047C91818BF40
:1049C00000F8012DCB0728BF00F8012D704700002B
:1049D00080B501214FF4804000F0BEFA00214FF471
:1049E0008040BDE8044000F0B7BAF0B587B0044697
:1049F0000E46002001900090DFF81054286920F046
:104A00001C0702A800F022FA0398DFF80414091822
:104A1000DFF80024914202D247F0080708E0DFF8EF
:104A2000F8130818DFF8F413884201D247F00C0796
:104A30002F614FF400420021304600F077F9002842
:104A40005AD04FF08060019002E00198401E019022
:104A500001980028F9D12068002841D00098401C16
:104A60000090DFF8BC730121304600F038F94007B0
:104A700002D40098B842F1D30098B8423CD000204C
:104A800000904FF480520146304600F04FF9002864
:104A900032D00098401C00900121304600F01FF9F0
:104AA000800602D40098B842F3D30098B84223D0CD
:104AB000002000901021304600F011F9014649070E
:104AC00003D54FF40061216201E0002121628007DB
:104AD00002D5002060611BE04FF48040606117E068
:104AE000206A6169490841EAD00292B20021304649
:104AF00000F01CF9002801D100208AE06FF07F400F
:104B0000019002E00198401E019001980028F9D11F
:104B10002868DFF81013084061680843A16808435B
:104B2000E16808432169084361690843A1690843B2
:104B3000E1690843216A0843616A0843A16A08439E
:104B4000E16A0843216B0843616B08432860A06B4E
:104B5000E16B0843216C0843616C0843A16C084376
:104B6000E16C0843216D0843616D08436860A06DE6
:104B7000A860E06DE860A8694FF641710840216EB9
:104B800040EA0140616E0843A16E0843E16E0843AC
:104B9000216F0843616F0843A861A06FE16F08436C
:104BA000E861DFF884028769DFF880123940D4F8C1
:104BB00080201143D4F884201143D4F88820114375
:104BC000D4F88C201143D4F890201143D4F89420C9
:104BD0001143D4F898201143D4F89C201143D4F801
:104BE000A02011438161D4F8A410D4F8A820114367
:104BF000D4F8AC201143D4F8B0201143D4F8B42039
:104C000041EA8201D4F8B820114341F40001016067
:104C1000012007B0F0BD0021016041608160C160EA
:104C2000016141618161C161016241628162C16270
:104C3000016341638163C1634021016420214164B8
:104C400000218164C164016541658165C1650166BA
:104C50008021416600218166C166016741678167E5
:104C6000C1674FF08061C0F880104FF00071C0F84C
:104C700084104FF08072C0F888204FF40012C0F802
:104C80008C200022C0F89020C0F89420C0F8982012
:104C9000C0F89C20C0F8A020C0F8A4101146C0F8AD
:104CA000A8104FF40031C0F8AC104FF48071C0F878
:104CB000B0101146C0F8B410C0F8B810704780B5F5
:104CC000012000F05AF800F07FF8012000F062F8AF
:104CD000012000F080F80120BDE8024088E081B0AA
:104CE00000220092DFF84821136803F01C03C00281
:104CF00000F478401843890101F4F861084340F05A
:104D0000010010600098401C00901368DFF810014B
:104D1000D90702D500998142F4D30099814201D18B
:104D2000002001E0506880B201B0704718B4002341
:104D30000093DFF8FC301C685A6004F01C02C002CB
:104D400000F478401043890101F4F861084340F011
:104D5000030018600098401C00901C68DFF8C00039
:104D6000E10702D500998142F4D30099814201D133
:104D7000002000E0012012BC7047DFF890100028EE
:104D8000086803D040F008000860704720F0080071
:104D900008607047DFF874100028086803D040F0FE
:104DA00004000860704720F0040008607047DFF8D6
:104DB0007800016841F0010101607047DFF8680088
:104DC000006800F001007047DFF86800016841F4F6
:104DD000801101607047DFF85C100028086803D07C
:104DE00040F400500860704720F40050086070479D
:104DF000DFF840100028086803D040F00200086087
:104E0000704720F0020008607047000000800240F8
:104E100000D3CEFEC0E1E40040F1E9FD40787D0121
:104E2000FFFF04000F8120FF00900240233FDEF8C7
:104E3000108002401890024066490A6822F47042CD
:104E400010430860704764490860704770B4604957
:104E50000A6802F00C02042A02D0082A03D033E0C8
:104E60005E4A026032E00A6802F470120B6803F4D2
:104E70008033920C0D2A01D0921C00E00622002BF8
:104E800003D1574B5A43026020E08B6A03F480330E
:104E90008C6A04F00F04641C504D002B04D1B5FB48
:104EA000F4F35A43026011E08B6AC3F303135B1CF3
:104EB0008E6AC6F30326B61CB5FBF3F37343B3FB4C
:104EC000F4F35A43026001E0464A02600A6802F0C5
:104ED000F003454A1B099B5C046824FA03F3436012
:104EE0000C6804F4E064240AA45CE34083600B686B
:104EF00003F46053DB0A9B5C446824FA03F3C36049
:104F0000096801F4404102EB9131097CB3FBF1F1F6
:104F1000016170BC7047354A0029116802D008430E
:104F20001060704721EA000010607047304A002985
:104F3000116802D008431060704721EA0000106039
:104F400070472C4A0029116802D00843106070474E
:104F500021EA000010607047274A0029116802D03A
:104F600008431060704721EA000010607047234A30
:104F70000029116802D008431060704721EA000040
:104F8000106070471E4A0029116802D00843106063
:104F9000704721EA0000106070471A490870704796
:104FA00000214209094B012A01D11A6804E0022AB2
:104FB00001D11A6A00E05A6A012300F01F0003FAC7
:104FC00000F0024200D01946084670470010024027
:104FD000041002402C1002407000424240787D01D3
:104FE00000093D0000127A00240000201410024045
:104FF000181002401C100240281002400C10024001
:10500000101002400710024070B5B2B00FF2F42049
:1050100000F0EEF900F0FEF90D28FBD10FF2083098
:1050200000F0E6F901214FF4E030FFF774FF0121B1
:105030007D20FFF77BFF012000F0E2FA4FF40040F3
:10504000FFF7FAFE0120FFF7FEFE3D20FFF7A8FF65
:105050000028FAD00B20FFF7A0FF0420ADF80000D5
:1050600003208DF8020018208DF803009E4C00A943
:10507000204600F048FA0220ADF8000003208DF829
:10508000020018208DF80300984D00A9284600F072
:105090003AFA4FF46050ADF8000003208DF802009A
:1050A00018208DF80300924E00A9304600F02BFA2C
:1050B00000214FF0201000F077FA8320ADF80000B7
:1050C00003208DF8020004208DF8030000A920467B
:1050D00000F019FA4FF48060ADF8000003208DF85D
:1050E000020004208DF8030000A9304600F00BFAFE
:1050F0000820ADF8000003208DF8020004208DF890
:10510000030000A9284600F0FEF93020ADF80000A9
:1051100003208DF8020004208DF8030000A9284622
:1051200000F0F1F94FF48070ADF8000003208DF825
:10513000020018208DF8030000A9204600F0E3F9D2
:10514000FFF746FCFFF733FEFFF738FE0128FBD0E0
:1051500003A8FFF760FD002003900A904FF4007051
:105160000D9000200E904FF00040119020201490E0
:1051700000201690179018904FF400600B904FF499
:1051800080400890002400E0641C202C14D20221EE
:10519000204680B2FFF7A3FDADF8060003212046AC
:1051A00080B2FFF79CFDADF8040001985149884298
:1051B00002D051498842E7D1212C05D30FF280104B
:1051C00000F016F9012020E0214689B203A8FFF77C
:1051D0000CFC002805D10FF2841000F009F9012021
:1051E00013E00FF29C1000F003F900F01FFA4FF0EB
:1051F000804000F029FB1C208DF8080000208DF86D
:105200000B0002A800F0D8FB002032B070BD80B5C2
:1052100000F008FC39494FF4E13008600020486094
:10522000088188810C204881002000F0ABFC0FF23F
:10523000641000F0DDF8FFF7E7FE0FF27C1000F0DD
:10524000D7F800F07DFC00214FF4E830FFF763FE53
:1052500000214FF6FD70FFF769FE00F0DBF8012832
:10526000FBDB00F0FAFCF8E7F8B50C461546002623
:10527000002D0DE0224F8021384600F057FD002818
:10528000F8D014F8011B384600F048FD761C6D1E5E
:10529000F0D13046F2BD70B50C4615460026002808
:1052A00006D04FF0FF3070BD04F8010B761C6D1E68
:1052B000002D03D000F004F80028F5D5304670BD6D
:1052C00010B50F4804882146890609D500F02AFD4B
:1052D00014F00B0102D040F0805010BDC0B210BDE0
:1052E0004FF0FF3010BD00000008014000100140E9
:1052F000000C014019162200F1C0070010340020F4
:1053000000440040636F6E6E656374204C414E2014
:105310006361626C6520616E6420707265737320D6
:10532000456E7465720A0D00507265737320457383
:105330006320666F7220657869740A0D00000000B2
:1053400045746865726E657420506879204E6F747C
:1053500020466F756E640A0D000000004574686594
:10536000726E657420496E697469616C697A6174E2
:10537000696F6E204661696C65640A0D000000006B
:10538000436865636B204C414E204C4544730A0DC5
:10539000000000000C4F4C494D45582053544D33EC
:1053A0003250313037202D2045544845524E455417
:1053B0002044454D4F0A0D0045746865726E657452
:1053C0002064656D6F2069732066696E6973686516
:1053D000642120507265737320627574746F6E203F
:1053E000746F2073656E64206563686F210D0A0019
:1053F0000EB400B582B003A9009100AB02460121B2
:10540000034878440A30FCF7D3F906BC5DF810FB7A
:105410004910000080B50B49086810F1010F03D056
:105420004FF0FF320A6002BD012200A90020FFF701
:1054300032FF012802D19DF8000002BD4FF0FF307D
:1054400002BD00005000002080B56F49884209D19C
:1054500001210420FFF78BFD00210420BDE804405A
:10546000FFF785BD6949884209D101210820FFF76E
:105470007EFD00210820BDE80440FFF778BD6449A7
:10548000884209D101211020FFF771FD0021102071
:10549000BDE80440FFF76BBD5E49884209D1012198
:1054A0002020FFF764FD00212020BDE80440FFF725
:1054B0005EBD5949884209D101214020FFF757FDBF
:1054C00000214020BDE80440FFF751BD5349884208
:1054D00009D101218020FFF74AFD00218020BDE88D
:1054E0000440FFF744BD4E4988420BD101214FF4DF
:1054F0008070FFF73CFD00214FF48070BDE8044050
:10550000FFF735BD01BDF0B40023CC7804F00F02E5
:10551000E40601D58C7822430C88E4B2002C1CD020
:10552000046803E0482D00D106615B1C082B13D2F0
:10553000012505FA03F635460F882F40AF42F4D116
:105540009D000F27AF40BC4302FA05F52C43CD78F0
:10555000282DE7D14661E8E704600B884FF480749A
:10556000A3421FD34468002319E0012503F1080674
:1055700005FA06F635460F882F40AF420ED19D0042
:105580000F27AF40BC4302FA05F52C43CD78282DF8
:1055900000D14661CD78482D00D106615B1C082BF7
:1055A000E3D34460F0BC704770B41E4A1468C0F383
:1055B000034583B200F44016B6F5401F06D124F02F
:1055C0007064156825F0706515600FE0C60206D599
:1055D000032606FA05F5AC4344F0706406E0450D79
:1055E0002D0103FA05F5AC4344F07064002904D0A2
:1055F000400D000103FA00F00443146070BC7047D2
:10560000094908607047000000080140000C014093
:10561000001001400014014000180140001C01402E
:105620000020014004000140DC0020427FB5022040
:1056300000F08FFB322102A800F0D6FB4FF47A7104
:1056400000A800F0D1FB00F095F8FDF742FD0FF245
:10565000DC10FFF7CDFE65484AF6C00101804FF42B
:10566000E4424280624801804FF480714180614889
:105670004FF6FF710180FF214180FEF7C5FD5E4CB2
:105680005E4D284600F07FF820802088002823D037
:105690004FF40060FEF774FAA98981420CD1012011
:1056A000FDF760FD208800283FD000F098FC21889D
:1056B000284600F07EF838E040F60600FEF760FA73
:1056C000A989814231D100F02DFC218800292CD0FC
:1056D000284600F06EF828E002A800F091FB0028B0
:1056E00023D002A800F087FB002612E0CC2044491A
:1056F00000FB0610434908600220FDF733FD2088B7
:10570000002805D000F06BFC2188284600F051F8F5
:10571000761C282EEAD300A800F072FB002804D0E3
:1057200000A800F068FB00F077FBFFF773FE1B2872
:10573000A7D1012004B070BD3348344981600021F5
:105740000160C06044F2F0514160002141F000412D
:1057500001602F49086070472E482F498160C06062
:10576000016841F4801101600021016041602B4912
:105770000860704780B5FFF7EFFFFFF7DDFFBDE87A
:105780000140FFF79CBA38B51F4C216800290ED4A0
:10579000C1F30D452A461D49FEF73AFD206840F049
:1057A000004020601E4801210160284632BD0020D3
:1057B00032BD70B50D46174C21680029FDD4164E38
:1057C0002A4601463046FEF723FDA66000202060F1
:1057D000144820602805000D6060206840F00040FB
:1057E000206011480121016070BD000008330020D5
:1057F00024340020283400200C33002034200020E2
:10580000540000206C320020803300202826002025
:105810000C90024000340020182C00201090024010
:10582000089002400000103004900240495020418E
:105830006464726573733A203139322E3136382EF2
:10584000302E3131340A0D0080B5444988420BD1E5
:1058500001214FF40060FFF78AFB00214FF4006044
:10586000BDE80440FFF783BBB0F1804F09D10121AF
:105870000846FFF787FB00210120BDE80440FFF741
:1058800081BB3749884209D101210220FFF77AFB09
:1058900000210220BDE80440FFF774BB3149884273
:1058A00009D101210420FFF76DFB00210420BDE890
:1058B0000440FFF767BB2C49884209D10121082029
:1058C000FFF760FB00210820BDE80440FFF75ABB4A
:1058D0002649884209D101211020FFF753FB0021FE
:1058E0001020BDE80440FFF74DBB2149884209D193
:1058F00001212020FFF746FB00212020BDE80440C5
:10590000FFF740BB1B4988420BD101214FF40050E7
:10591000FFF72DFB00214FF40050BDE80440FFF7D6
:1059200026BB01BD10B4028802F08F0202800288FB
:10593000CB884C8823431A4302808A8882850A8850
:1059400002850246054B9A4202D00A4B9A4201D187
:10595000097A01860121818210BC7047002C014028
:105960000004004000080040000C0040001000400F
:1059700000140040003401400029018803D041F0A8
:1059800001010180704740F2FE32114001807047F2
:10599000002A828902D011438181704722EA0101E5
:1059A0008181704701894FF6F8721140018170477B
:1059B000C94301827047000070B403781A46012180
:1059C000C478002C1DD0134B1B6803F4E063C3F5AF
:1059D000E0631B0A4478C3F10405AC4085780F26C8
:1059E00026FA03F32B4023431B010B4C135500787D
:1059F00042110A4B00F01F0001FA00F043F82200A8
:105A000006E05011064A03F01F03994042F82010A7
:105A100070BC70470CED00E000E400E000E100E045
:105A200080E100E04148016841F001010160416806
:105A30003F4A1140416001683E4A114001600168DF
:105A400021F480210160416821F4FE014160016878
:105A500021F0A05101604FF47F0181600021C162FB
:105A600000BF82B00020019000903048016841F4EE
:105A700080310160016801F4003100910199491CF5
:105A800001910099002903D10199B1F5A06FF1D1DD
:105A90000168490C01F0010100910099012943D1ED
:105AA00025490A6842F010020A600A6892089200CA
:105AB0000A600A6842F002020A6041684160416877
:105AC0004160416841F480614160C16A1B4A1140F4
:105AD000C162C16A41F4833141F04401C16201688D
:105AE00041F08061016001680901FCD5416821F441
:105AF0007C114160416841F4E8114160016841F066
:105B00008071016001688901FCD5416889088900BC
:105B10004160416841F002014160416801F00C01BF
:105B20000829FAD102B07047FEE7000000100240D9
:105B30000000FFF0FFFFF6FE0020024000F0FEFF35
:105B400080B53848FFF780FC3748FFF77DFC3748C1
:105B5000FFF77AFC3648FFF777FC3648FFF774FC0E
:105B60003548FFF771FC4FF69F70ADF80000042038
:105B70008DF8030003208DF8020000A92F48FFF7DD
:105B8000C2FC01BDF8B506460C46354601210FF2B0
:105B9000C00050F8250040F00100FFF7C7F9002EC3
:105BA00004D101214FF40030FFF7CBF90FF2A4002C
:105BB00030F81500ADF8000018208DF80300032020
:105BC0008DF802001E4E06EB850700A97868FFF7E6
:105BD0009AFC0FF2840030F81500ADF800000420A4
:105BE0008DF8030000A97868FFF78DFC56F82500B2
:105BF0001449884204D101211348FFF7D5FC06E07F
:105C00001249884203D101210820FFF7CDFC21462B
:105C100056F8250000F036F8012156F8250000F06E
:105C200071F8F1BD00080140000C01400010014076
:105C300000180140001C01400020014000140140F8
:105C4000480000200048004030001400004400409C
:105C50002000000020000000400010B582B0044683
:105C600014F1010F0AD08DF80000012200A90120D3
:105C7000FFF7FAFA012801D1204616BD4FF0FF3098
:105C800016BD000030B585B004460D46208A4CF69E
:105C9000FF710840E98808432082A0894EF6F3117D
:105CA0000840A98808432989084369890843A081D5
:105CB000A08A4FF6FF410840A9890843A08200A8A6
:105CC000FFF7C4F80E48844201D1039800E002981F
:105CD0001921484329688900B0FBF1F06421B0FB29
:105CE000F1F21201130901FB130000013230B0FB85
:105CF000F1F000F00F001043208105B030BD00002E
:105D0000003801400029818903D041F4005181818C
:105D100070474DF6FF72114081817047C905C90D6A
:105D2000818070478088C005C00D704700220088C0
:105D3000084200D0012210467047000080B50121C2
:105D40004FF08040FFF734FE26480168491C01608F
:105D500001BD00B585B0234800210160012108463E
:105D6000FFF7EFF800210120FFF70CF94FF080401A
:105D7000FFF718FE40F2CF20ADF804000020ADF888
:105D8000060042F21070ADF808000020ADF80A00DD
:105D90008DF80C0001A94FF08040FFF7C3FD0122F0
:105DA00011464FF08040FFF7F3FD01214FF0804096
:105DB000FFF7FEFD1C208DF8000000208DF801008B
:105DC00001208DF802008DF8030000A8FFF7F4FD14
:105DD00001214FF08040FFF7CFFD05B000BD014825
:105DE000006870472034002010B504466160FFF75A
:105DF000F6FF206010BD01684268511801607047CD
:105E000010B50446FFF7EBFF2168401A616888422D
:105E10008041C043C00F10BD70B5B54CA078451C83
:105E2000EDB2A5700020207012E006EB460004EBF6
:105E30008000083001884288114307D0817A691AAE
:105E4000782903DB0422002100F066F9701C207021
:105E50002678082EE9D370BDF8B50C46A44D002174
:105E6000297001E0491C29702978082919D201EB11
:105E7000410205EB820202F108063288002AF1D0C5
:105E80007388002BEED007889742EBD142889A4264
:105E9000E8D106222146301DFEF7BAF9A878B07283
:105EA000F1BD0021297001E0491C297029780829D9
:105EB0000BD201EB410205EB820202F108063288A7
:105EC000002AF1D17288002AEED108291DD10021C3
:105ED000E970697029700EE002FB015202F10806B8
:105EE000B27AAB78EE789F1ABE4202DA9A1AEA705A
:105EF0006970491C297029780C220829ECD369782B
:105F0000297002FB015101F10806042201463046C6
:105F1000FEF77EF906222146301DFEF779F9A878B2
:105F2000B072F1BDF8B5734C20882A2802D2002047
:105F30002080F1BD002020806F4DA88AB0F5807FC1
:105F400003D0B0F5007F39D0F1BD6C4EE88C3188BC
:105F5000884243D1288D718888423FD105F11601CE
:105F600005F11C00FFF778FF4FF40070A8820622AD
:105F700005F1160105F12000FEF74AF9604F0622EF
:105F8000394605F11600FEF743F906223946A81DE9
:105F9000FEF73EF9062205F120012846FEF738F902
:105FA000A88BE884E88B28853088A8837088E883EC
:105FB0004FF4C160A8812A202080F1BD4F4EE88CAB
:105FC000318888420AD1288D7188884206D105F12E
:105FD000160105F11C00BDE8F4403DE7F1BDF8B540
:105FE0004FF6FF71444CE28B8A4209D1228C8A42DF
:105FF00006D106220FF218112046FEF709F96BE0D0
:1060000040490A883D4DE38B13402E88324093422D
:1060100006D14988228C0A406B8819408A4206D0F2
:106020003949334E0A88B2804988F18004E0304E05
:10603000E18BB180218CF1800021317001E0491C9D
:106040003170317808290CD201EB410006EB800059
:106050000830B28803889A42F1D1F28843889A4284
:10606000EDD1082933D10622FF21204600F054F853
:106070000622002104F1200000F04EF8204F0622F5
:106080003946A01DFEF7C4F80622394604F1160071
:10609000FEF7BEF8B088E084F08820852888A083C9
:1060A0006888E0834FF48070A082E081082020821D
:1060B0000620A0740420E0744FF4C160A08104F2B3
:1060C0003600124908600B482A210180F1BD0622E2
:1060D000011D2046FEF79CF806220949A01DFEF787
:1060E00097F80820A081034801880E310180F1BD96
:1060F000703200200C3300203420002008330020B0
:106100007C64000828340020243400201033002050
:10611000FFFFFFFFFFFF000010B5044610460A46D0
:1061200001462046FEF720FC204610BD474554207E
:10613000000000002F696E6465782E68746D6C0035
:106140002F3430342E68746D6C0000005265666523
:106150007265723A00000000485454502F312E30BE
:1061600020323030204F4B0D0A5365727665723AFB
:10617000207549502F312E3020687474703A2F2FBB
:106180007777772E736963732E73652F7E616461F1
:106190006D2F7569702F0D0A436F6E6E656374699C
:1061A0006F6E3A20636C6F73650D0A00485454504B
:1061B0002F312E3020343034204E6F7420666F75AE
:1061C0006E640D0A5365727665723A207549502FD8
:1061D000312E3020687474703A2F2F7777772E73B2
:1061E0006963732E73652F7E6164616D2F756970AD
:1061F0002F0D0A436F6E6E656374696F6E3A20638C
:106200006C6F73650D0A0000436F6E74656E742DBC
:10621000747970653A20746578742F706C61696E5A
:106220000D0A0D0A00000000436F6E74656E742D38
:10623000747970653A20746578742F68746D6C0D8C
:106240000A0D0A00436F6E74656E742D7479706563
:106250003A20746578742F6373730D0A0D0A000079
:10626000436F6E74656E742D747970653A20696D34
:106270006167652F706E670D0A0D0A00436F6E74BB
:10628000656E742D747970653A20696D6167652F4C
:106290006769660D0A0D0A00436F6E74656E742D92
:1062A000747970653A20696D6167652F6A706567FA
:1062B0000D0A0D0A00000000436F6E74656E742DA8
:1062C000747970653A206170706C69636174696F8C
:1062D0006E2F6F637465742D73747265616D0D0A32
:1062E0000D0A00002E68746D6C0000002E73687437
:1062F0006D6C00002E637373000000002E706E67DB
:10630000000000002E676966000000002E6A7067BA
:106310000000000066696C652D7374617473000081
:106320007463702D636F6E6E656374696F6E730056
:106330006E65742D7374617473000000146300083B
:10634000D145000820630008BF46000830630008FC
:1063500045470008434C4F534544000053594E2DC8
:10636000524356440000000053594E2D53454E549D
:106370000000000045535441424C495348454400F5
:1063800046494E2D574149542D31000046494E2D66
:10639000574149542D320000434C4F53494E47005A
:1063A00054494D452D574149540000004C41535428
:1063B0002D41434B0000000010B5084979441C31C1
:1063C000074C7C441A34A14206D0081D0A685118B3
:1063D00088470146A142F8D110BD00BF0800000067
:1063E000280000002FC1FFFFD83300005400002018
:1063F00000000000DBC0FFFF54000000A00100000F
:1064000000000020000000007047FEE7FEE7FEE706
:10641000FEE77047704770477047FFF78FBC7047C3
:1064200000F009F8002801D0FFF7C6FF0020FEF7B2
:10643000EEFE00F002F80120704700F001B8000005
:106440000746384600F002F8FBE700000149182033
:10645000ABBEFBE72600020038B504460D462846D1
:10646000FFF7FBFBA84218BF0024204632BDC04600
:10647000C046C046C046FFF7D3FF000000FFFFFF45
:10648000FFFF0000FFF7C0BFFFF7BFBFFFF7BEBFB2
:10649000FFF7BDBFFFF7BCBFFFF7BBBFFFF7BABF3A
:1064A000FFF7B9BFFFF7B8BFFFF7FEBFFFF7FEBFAB
:1064B000FFF7FEBFFFF7FEBFFFF7FEBFFFF7FEBF10
:1064C000FFF7FEBFFFF7FEBFFFF7FEBFFFF7FEBF00
:1064D000FFF7FEBFFFF7FEBFFFF7FEBFFFF7FEBFF0
:1064E000FFF7FEBFFFF7FEBFFFF7FEBFFFF7FEBFE0
:1064F000FFF7FEBFFFF7FEBFFFF7FEBFFFF7FEBFD0
:10650000FFF7FEBFFFF7FEBFFFF7FEBFFFF7FEBFBF
:10651000FFF7FEBFFFF7FEBFFFF77FBFFFF7FEBF2E
:10652000FFF7FEBFFFF7FEBFFFF7FEBFFFF7FEBF9F
:10653000FFF7FEBFFFF7FEBFFFF7FEBFFFF7FEBF8F
:10654000FFF7FEBFFFF7FEBFFFF7FEBFFFF7FEBF7F
:10655000FFF7FEBFFFF7FEBFFFF7FEBFFFF7FEBF6F
:10656000FFF7FEBFFFF7FEBFFFF7FEBFFFF7FEBF5F
:10657000FFF7FEBFFFF7FEBFFFF7FEBFFFF7FEBF4F
:10658000FFF7FEBFFFF7FEBFFFF7FEBFFFF7FEBF3F
:10659000FFF7FEBFFFF7FEBFFFF741BF54630008E0
:1065A0005C63000868630008746300088063000887
:1065B0008C63000898630008A0630008AC630008BF
:1065C0000000000001020304010203040607080999
:1065D000020406083C630008446300084C6300089A
:1065E000000000000044004000140140FFFFFFFFD6
:040000050800646F1C
:00000001FF
